{
  "contractName": "Pervasive",
  "abi": [
    {
      "constant": true,
      "inputs": [],
      "name": "subjectsCount",
      "outputs": [
        {
          "name": "",
          "type": "uint256"
        }
      ],
      "payable": false,
      "stateMutability": "view",
      "type": "function"
    },
    {
      "constant": true,
      "inputs": [
        {
          "name": "",
          "type": "uint256"
        }
      ],
      "name": "subjects",
      "outputs": [
        {
          "name": "id",
          "type": "uint256"
        },
        {
          "name": "name",
          "type": "string"
        },
        {
          "name": "voteCount",
          "type": "uint256"
        }
      ],
      "payable": false,
      "stateMutability": "view",
      "type": "function"
    },
    {
      "constant": true,
      "inputs": [
        {
          "name": "",
          "type": "address"
        }
      ],
      "name": "votersList",
      "outputs": [
        {
          "name": "",
          "type": "bool"
        }
      ],
      "payable": false,
      "stateMutability": "view",
      "type": "function"
    },
    {
      "inputs": [],
      "payable": false,
      "stateMutability": "nonpayable",
      "type": "constructor"
    },
    {
      "anonymous": false,
      "inputs": [
        {
          "indexed": true,
          "name": "_subjectId",
          "type": "uint256"
        }
      ],
      "name": "selectedSubjectEvent",
      "type": "event"
    },
    {
      "constant": false,
      "inputs": [
        {
          "name": "_subjectId",
          "type": "uint256"
        }
      ],
      "name": "vote",
      "outputs": [],
      "payable": false,
      "stateMutability": "nonpayable",
      "type": "function"
    }
  ],
  "bytecode": "0x608060405234801561001057600080fd5b5061005e6040805190810160405280600d81526020017f457468657265756d204e6f646500000000000000000000000000000000000000815250610197640100000000026401000000009004565b6100ab6040805190810160405280600781526020017f5665726e654d5100000000000000000000000000000000000000000000000000815250610197640100000000026401000000009004565b6100f86040805190810160405280600781526020017f41575320496f5400000000000000000000000000000000000000000000000000815250610197640100000000026401000000009004565b6101456040805190810160405280600981526020017f416c74426561636f6e0000000000000000000000000000000000000000000000815250610197640100000000026401000000009004565b6101926040805190810160405280600b81526020017f47656e75696e6f20313031000000000000000000000000000000000000000000815250610197640100000000026401000000009004565b6102b9565b60026000815480929190600101919050555060606040519081016040528060025481526020018281526020016000815250600160006002548152602001908152602001600020600082015181600001556020820151816001019080519060200190610203929190610214565b506040820151816002015590505050565b828054600181600116156101000203166002900490600052602060002090601f016020900481019282601f1061025557805160ff1916838001178555610283565b82800160010185558215610283579182015b82811115610282578251825591602001919060010190610267565b5b5090506102909190610294565b5090565b6102b691905b808211156102b257600081600090555060010161029a565b5090565b90565b610404806102c86000396000f300608060405260043610610062576000357c0100000000000000000000000000000000000000000000000000000000900463ffffffff1680630121b93f146100675780632c39f525146100945780632c7424af146100bf578063443019fe14610173575b600080fd5b34801561007357600080fd5b50610092600480360381019080803590602001909291905050506101ce565b005b3480156100a057600080fd5b506100a96102f0565b6040518082815260200191505060405180910390f35b3480156100cb57600080fd5b506100ea600480360381019080803590602001909291905050506102f6565b6040518084815260200180602001838152602001828103825284818151815260200191508051906020019080838360005b8381101561013657808201518184015260208101905061011b565b50505050905090810190601f1680156101635780820380516001836020036101000a031916815260200191505b5094505050505060405180910390f35b34801561017f57600080fd5b506101b4600480360381019080803573ffffffffffffffffffffffffffffffffffffffff1690602001909291905050506103b8565b604051808215151515815260200191505060405180910390f35b6000803373ffffffffffffffffffffffffffffffffffffffff1673ffffffffffffffffffffffffffffffffffffffff16815260200190815260200160002060009054906101000a900460ff1615151561022657600080fd5b60008111801561023857506002548111155b151561024357600080fd5b60016000803373ffffffffffffffffffffffffffffffffffffffff1673ffffffffffffffffffffffffffffffffffffffff16815260200190815260200160002060006101000a81548160ff0219169083151502179055506001600082815260200190815260200160002060020160008154809291906001019190505550807f176e029689e750aafbcda3fa631200fa772e3017381982bebb2d4d064494500e60405160405180910390a250565b60025481565b6001602052806000526040600020600091509050806000015490806001018054600181600116156101000203166002900480601f0160208091040260200160405190810160405280929190818152602001828054600181600116156101000203166002900480156103a85780601f1061037d576101008083540402835291602001916103a8565b820191906000526020600020905b81548152906001019060200180831161038b57829003601f168201915b5050505050908060020154905083565b60006020528060005260406000206000915054906101000a900460ff16815600a165627a7a723058205f32a5d5fbea9246d7da6501ed35c2435e8f2639c6a847804d22b89ffc3570480029",
  "source": "pragma solidity ^0.4.11;\n\ncontract Pervasive{\n\n//Model a Subject\nstruct Subject {\n  uint id;\n  string name;\n  uint voteCount;\n}\n\n//Store sender\n//default to false\nmapping(address => bool) public votersList;\n//Store Subjects\n//Fetch Subject\nmapping(uint => Subject) public subjects;\n//Store Subject Count (Since there is non possibility to know how many elements are in Subjects)\nuint public subjectsCount;\n\n//voted event\nevent selectedSubjectEvent(\n    uint indexed _subjectId\n  );\n\n//Run every time we depoly it to the block chain\n  function Pervasive () public{\n    addSubject(\"Ethereum Node\");\n    addSubject(\"VerneMQ\");\n    addSubject(\"AWS IoT\");\n    addSubject(\"AltBeacon\");\n    addSubject(\"Genuino 101\");\n  }\n\n  function addSubject(string _name) private{\n    subjectsCount ++;\n    subjects[subjectsCount] = Subject(subjectsCount,_name,0);\n  }\n\n\n  function vote (uint _subjectId) public {\n    //check if has voted once\n    require(!votersList[msg.sender]);\n    //require a valid subject\n    require(_subjectId>0 && _subjectId<=subjectsCount);\n    //record that voter has Voted\n    votersList[msg.sender]=true;\n\n    //update subject vote counter\n    subjects[_subjectId].voteCount ++;\n\n    //trigger voted events\n    selectedSubjectEvent(_subjectId);\n  }\n}\n",
  "sourcePath": "/home/verz/Documenti/Studio/Università Sapienza/Corsi/4° Semestre/Seminario/DAPP/Pervasive/contracts/Pervasive.sol",
  "compiler": {
    "name": "solc",
    "version": "0.4.24+commit.e67f0147.Emscripten.clang"
  },
  "schemaVersion": "2.0.0",
  "updatedAt": "2018-05-28T11:21:18.278Z"
}